{
  "_format": "hh-sol-artifact-1",
  "contractName": "CryptoGigEscrow",
  "sourceName": "contracts/CryptoGigEscrow.sol",
  "abi": [
    {
      "inputs": [
        {
          "internalType": "address",
          "name": "_usdcAddress",
          "type": "address"
        },
        {
          "internalType": "address",
          "name": "_arbitrator",
          "type": "address"
        }
      ],
      "stateMutability": "nonpayable",
      "type": "constructor"
    },
    {
      "inputs": [
        {
          "internalType": "address",
          "name": "owner",
          "type": "address"
        }
      ],
      "name": "OwnableInvalidOwner",
      "type": "error"
    },
    {
      "inputs": [
        {
          "internalType": "address",
          "name": "account",
          "type": "address"
        }
      ],
      "name": "OwnableUnauthorizedAccount",
      "type": "error"
    },
    {
      "inputs": [],
      "name": "ReentrancyGuardReentrantCall",
      "type": "error"
    },
    {
      "anonymous": false,
      "inputs": [
        {
          "indexed": true,
          "internalType": "uint256",
          "name": "jobId",
          "type": "uint256"
        },
        {
          "indexed": false,
          "internalType": "uint256",
          "name": "clientAmount",
          "type": "uint256"
        },
        {
          "indexed": false,
          "internalType": "uint256",
          "name": "freelancerAmount",
          "type": "uint256"
        }
      ],
      "name": "DisputeResolved",
      "type": "event"
    },
    {
      "anonymous": false,
      "inputs": [
        {
          "indexed": true,
          "internalType": "uint256",
          "name": "jobId",
          "type": "uint256"
        },
        {
          "indexed": true,
          "internalType": "address",
          "name": "freelancer",
          "type": "address"
        }
      ],
      "name": "JobAssigned",
      "type": "event"
    },
    {
      "anonymous": false,
      "inputs": [
        {
          "indexed": true,
          "internalType": "uint256",
          "name": "jobId",
          "type": "uint256"
        },
        {
          "indexed": true,
          "internalType": "address",
          "name": "client",
          "type": "address"
        },
        {
          "indexed": false,
          "internalType": "uint256",
          "name": "amount",
          "type": "uint256"
        }
      ],
      "name": "JobFunded",
      "type": "event"
    },
    {
      "anonymous": false,
      "inputs": [
        {
          "indexed": true,
          "internalType": "address",
          "name": "previousOwner",
          "type": "address"
        },
        {
          "indexed": true,
          "internalType": "address",
          "name": "newOwner",
          "type": "address"
        }
      ],
      "name": "OwnershipTransferred",
      "type": "event"
    },
    {
      "anonymous": false,
      "inputs": [
        {
          "indexed": true,
          "internalType": "uint256",
          "name": "jobId",
          "type": "uint256"
        },
        {
          "indexed": true,
          "internalType": "address",
          "name": "freelancer",
          "type": "address"
        },
        {
          "indexed": false,
          "internalType": "uint256",
          "name": "amount",
          "type": "uint256"
        },
        {
          "indexed": false,
          "internalType": "uint256",
          "name": "fee",
          "type": "uint256"
        }
      ],
      "name": "PaymentReleased",
      "type": "event"
    },
    {
      "inputs": [],
      "name": "DISPUTE_FEE",
      "outputs": [
        {
          "internalType": "uint256",
          "name": "",
          "type": "uint256"
        }
      ],
      "stateMutability": "view",
      "type": "function"
    },
    {
      "inputs": [],
      "name": "NORMAL_FEE",
      "outputs": [
        {
          "internalType": "uint256",
          "name": "",
          "type": "uint256"
        }
      ],
      "stateMutability": "view",
      "type": "function"
    },
    {
      "inputs": [],
      "name": "arbitrator",
      "outputs": [
        {
          "internalType": "address",
          "name": "",
          "type": "address"
        }
      ],
      "stateMutability": "view",
      "type": "function"
    },
    {
      "inputs": [
        {
          "internalType": "uint256",
          "name": "_jobId",
          "type": "uint256"
        },
        {
          "internalType": "address",
          "name": "_freelancer",
          "type": "address"
        }
      ],
      "name": "assignFreelancer",
      "outputs": [],
      "stateMutability": "nonpayable",
      "type": "function"
    },
    {
      "inputs": [
        {
          "internalType": "uint256",
          "name": "_jobId",
          "type": "uint256"
        }
      ],
      "name": "completeJob",
      "outputs": [],
      "stateMutability": "nonpayable",
      "type": "function"
    },
    {
      "inputs": [
        {
          "internalType": "uint256",
          "name": "_jobId",
          "type": "uint256"
        },
        {
          "internalType": "uint256",
          "name": "_amount",
          "type": "uint256"
        }
      ],
      "name": "fundJob",
      "outputs": [],
      "stateMutability": "nonpayable",
      "type": "function"
    },
    {
      "inputs": [
        {
          "internalType": "address",
          "name": "_address",
          "type": "address"
        }
      ],
      "name": "isArbitrator",
      "outputs": [
        {
          "internalType": "bool",
          "name": "",
          "type": "bool"
        }
      ],
      "stateMutability": "view",
      "type": "function"
    },
    {
      "inputs": [
        {
          "internalType": "uint256",
          "name": "",
          "type": "uint256"
        }
      ],
      "name": "jobs",
      "outputs": [
        {
          "internalType": "uint256",
          "name": "jobId",
          "type": "uint256"
        },
        {
          "internalType": "address",
          "name": "client",
          "type": "address"
        },
        {
          "internalType": "address",
          "name": "freelancer",
          "type": "address"
        },
        {
          "internalType": "uint256",
          "name": "amount",
          "type": "uint256"
        },
        {
          "internalType": "uint256",
          "name": "depositedAmount",
          "type": "uint256"
        },
        {
          "internalType": "enum CryptoGigEscrow.JobStatus",
          "name": "status",
          "type": "uint8"
        },
        {
          "internalType": "bool",
          "name": "disputeRaised",
          "type": "bool"
        },
        {
          "internalType": "uint256",
          "name": "createdAt",
          "type": "uint256"
        },
        {
          "internalType": "uint256",
          "name": "completedAt",
          "type": "uint256"
        }
      ],
      "stateMutability": "view",
      "type": "function"
    },
    {
      "inputs": [],
      "name": "owner",
      "outputs": [
        {
          "internalType": "address",
          "name": "",
          "type": "address"
        }
      ],
      "stateMutability": "view",
      "type": "function"
    },
    {
      "inputs": [
        {
          "internalType": "uint256",
          "name": "_jobId",
          "type": "uint256"
        }
      ],
      "name": "raiseDispute",
      "outputs": [],
      "stateMutability": "nonpayable",
      "type": "function"
    },
    {
      "inputs": [
        {
          "internalType": "uint256",
          "name": "_jobId",
          "type": "uint256"
        }
      ],
      "name": "releasePayment",
      "outputs": [],
      "stateMutability": "nonpayable",
      "type": "function"
    },
    {
      "inputs": [],
      "name": "renounceOwnership",
      "outputs": [],
      "stateMutability": "nonpayable",
      "type": "function"
    },
    {
      "inputs": [
        {
          "internalType": "uint256",
          "name": "_jobId",
          "type": "uint256"
        },
        {
          "internalType": "uint256",
          "name": "_clientPercentage",
          "type": "uint256"
        },
        {
          "internalType": "uint256",
          "name": "_freelancerPercentage",
          "type": "uint256"
        }
      ],
      "name": "resolveDispute",
      "outputs": [],
      "stateMutability": "nonpayable",
      "type": "function"
    },
    {
      "inputs": [
        {
          "internalType": "address",
          "name": "newOwner",
          "type": "address"
        }
      ],
      "name": "transferOwnership",
      "outputs": [],
      "stateMutability": "nonpayable",
      "type": "function"
    },
    {
      "inputs": [],
      "name": "usdc",
      "outputs": [
        {
          "internalType": "contract IERC20",
          "name": "",
          "type": "address"
        }
      ],
      "stateMutability": "view",
      "type": "function"
    }
  ],
  "bytecode": "0x60806040523480156200001157600080fd5b50604051620015b0380380620015b08339810160408190526200003491620001a2565b600160005533806200006157604051631e4fbdf760e01b8152600060048201526024015b60405180910390fd5b6200006c8162000133565b506001600160a01b038216620000b45760405162461bcd60e51b815260206004820152600c60248201526b496e76616c6964205553444360a01b604482015260640162000058565b6001600160a01b038116620001015760405162461bcd60e51b815260206004820152601260248201527124b73b30b634b21030b93134ba3930ba37b960711b604482015260640162000058565b600280546001600160a01b039384166001600160a01b03199182161790915560038054929093169116179055620001da565b600180546001600160a01b038381166001600160a01b0319831681179093556040519116919082907f8be0079c531659141344cd1fd0a4f28419497f9722a3daafe3b4186f6b6457e090600090a35050565b80516001600160a01b03811681146200019d57600080fd5b919050565b60008060408385031215620001b657600080fd5b620001c18362000185565b9150620001d16020840162000185565b90509250929050565b6113c680620001ea6000396000f3fe608060405234801561001057600080fd5b50600436106100f55760003560e01c806388685cd911610097578063a5c1674e11610066578063a5c1674e14610270578063c949756c14610283578063dc755e9d14610296578063f2fde38b1461029f57600080fd5b806388685cd9146102075780638da5cb5b1461021a5780639f6bd2a91461022b578063a1c0d32f1461025d57600080fd5b80633fabe74f116100d35780633fabe74f146101c257806353ae00ad146101d55780636cc6cde1146101ec578063715018a6146101ff57600080fd5b80630af915ee146100fa578063180aedf31461010f5780633e413bee14610197575b600080fd5b61010d610108366004611199565b6102b2565b005b61017961011d3660046111bb565b60046020819052600091825260409091208054600182015460028301546003840154948401546005850154600686015460079096015494966001600160a01b03948516969390941694919260ff80831693610100909304169189565b60405161018e999897969594939291906111ea565b60405180910390f35b6002546101aa906001600160a01b031681565b6040516001600160a01b03909116815260200161018e565b61010d6101d036600461125d565b610557565b6101de6101f481565b60405190815260200161018e565b6003546101aa906001600160a01b031681565b61010d610987565b61010d6102153660046111bb565b61099b565b6001546001600160a01b03166101aa565b61024d6102393660046112a5565b6003546001600160a01b0391821691161490565b604051901515815260200161018e565b61010d61026b3660046111bb565b610d18565b61010d61027e3660046111bb565b610df9565b61010d6102913660046112c7565b610f4d565b6101de61032081565b61010d6102ad3660046112a5565b6110b5565b6102ba6110f0565b600081116103045760405162461bcd60e51b81526020600482015260126024820152710416d6f756e74206d757374206265203e20360741b60448201526064015b60405180910390fd5b6000828152600460205260409020600101546001600160a01b0316156103615760405162461bcd60e51b8152602060048201526012602482015271129bd888185b1c9958591e48199d5b99195960721b60448201526064016102fb565b6002546040516323b872dd60e01b8152336004820152306024820152604481018390526001600160a01b03909116906323b872dd906064016020604051808303816000875af11580156103b8573d6000803e3d6000fd5b505050506040513d601f19601f820116820180604052508101906103dc91906112f3565b61041a5760405162461bcd60e51b815260206004820152600f60248201526e151c985b9cd9995c8819985a5b1959608a1b60448201526064016102fb565b604080516101208101825283815233602080830191825260008385018181526060850187815260808601888152600160a0880181815260c089018690524260e08a015261010089018690528b86526004968790529890942087518155955186850180546001600160a01b03199081166001600160a01b0393841617909155935160028801805490951691161790925551600385015551918301919091559251600582018054939492939192909160ff1916908360068111156104de576104de6111d4565b021790555060c082015160058201805461ff001916610100921515830217905560e0830151600683015590910151600790910155604051818152339083907fe3fbcc1ea1bdc559ec7f0347efde7655e58b5f45a30b0e4470a583c3ef5496b39060200160405180910390a36105536001600055565b5050565b6003546001600160a01b031633146105a35760405162461bcd60e51b815260206004820152600f60248201526e27b7363c9030b93134ba3930ba37b960891b60448201526064016102fb565b6105ab6110f0565b600083815260046020819052604090912090600582015460ff1660068111156105d6576105d66111d4565b146106125760405162461bcd60e51b815260206004820152600c60248201526b139bdd08191a5cdc1d5d195960a21b60448201526064016102fb565b61061c828461132b565b60641461066b5760405162461bcd60e51b815260206004820152601b60248201527f50657263656e7461676573206d7573742073756d20746f20313030000000000060448201526064016102fb565b600061271061032083600401546106829190611344565b61068c919061135b565b905060008183600401546106a0919061137d565b9050600060646106b08784611344565b6106ba919061135b565b9050600060646106ca8785611344565b6106d4919061135b565b6005868101805460ff1916909117905542600787015560025460035460405163a9059cbb60e01b81526001600160a01b03918216600482015260248101889052929350169063a9059cbb906044016020604051808303816000875af1158015610741573d6000803e3d6000fd5b505050506040513d601f19601f8201168201806040525081019061076591906112f3565b6107a75760405162461bcd60e51b8152602060048201526013602482015272119959481d1c985b9cd9995c8819985a5b1959606a1b60448201526064016102fb565b811561086b57600254600186015460405163a9059cbb60e01b81526001600160a01b0391821660048201526024810185905291169063a9059cbb906044016020604051808303816000875af1158015610804573d6000803e3d6000fd5b505050506040513d601f19601f8201168201806040525081019061082891906112f3565b61086b5760405162461bcd60e51b815260206004820152601460248201527310db1a595b9d081c99599d5b990819985a5b195960621b60448201526064016102fb565b801561093857600280549086015460405163a9059cbb60e01b81526001600160a01b0391821660048201526024810184905291169063a9059cbb906044016020604051808303816000875af11580156108c8573d6000803e3d6000fd5b505050506040513d601f19601f820116820180604052508101906108ec91906112f3565b6109385760405162461bcd60e51b815260206004820152601960248201527f467265656c616e636572207061796d656e74206661696c65640000000000000060448201526064016102fb565b604080518381526020810183905289917f959dc01840aa516bf9407cffa45326c7b6821c48feff7b91eb0c743c8f460fd6910160405180910390a250505050506109826001600055565b505050565b61098f61111a565b6109996000611147565b565b6003546001600160a01b031633146109e75760405162461bcd60e51b815260206004820152600f60248201526e27b7363c9030b93134ba3930ba37b960891b60448201526064016102fb565b6109ef6110f0565b60008181526004602052604090206002600582015460ff166006811115610a1857610a186111d4565b1480610a3c57506003600582015460ff166006811115610a3a57610a3a6111d4565b145b610a795760405162461bcd60e51b815260206004820152600e60248201526d496e76616c69642073746174757360901b60448201526064016102fb565b60028101546001600160a01b0316610acc5760405162461bcd60e51b8152602060048201526016602482015275139bc8199c99595b185b98d95c88185cdcda59db995960521b60448201526064016102fb565b6005810154600090610100900460ff16610ae8576101f4610aec565b6103205b90506000612710828460040154610b039190611344565b610b0d919061135b565b90506000818460040154610b21919061137d565b6005858101805460ff1916909117905542600786015560025460035460405163a9059cbb60e01b81526001600160a01b03918216600482015260248101869052929350169063a9059cbb906044016020604051808303816000875af1158015610b8e573d6000803e3d6000fd5b505050506040513d601f19601f82011682018060405250810190610bb291906112f3565b610bf45760405162461bcd60e51b8152602060048201526013602482015272119959481d1c985b9cd9995c8819985a5b1959606a1b60448201526064016102fb565b600280549085015460405163a9059cbb60e01b81526001600160a01b0391821660048201526024810184905291169063a9059cbb906044016020604051808303816000875af1158015610c4b573d6000803e3d6000fd5b505050506040513d601f19601f82011682018060405250810190610c6f91906112f3565b610cbb5760405162461bcd60e51b815260206004820152601760248201527f5061796d656e74207472616e73666572206661696c656400000000000000000060448201526064016102fb565b600284015460408051838152602081018590526001600160a01b039092169187917f8cdc8dc08e54a4e57f52077ecf1b4c508758513439cae2aa325dcc85b922fca8910160405180910390a350505050610d156001600055565b50565b600081815260046020526040902060028101546001600160a01b03163314610d825760405162461bcd60e51b815260206004820152601860248201527f4f6e6c792061737369676e656420667265656c616e636572000000000000000060448201526064016102fb565b6002600582015460ff166006811115610d9d57610d9d6111d4565b14610de05760405162461bcd60e51b81526020600482015260136024820152724a6f62206e6f7420696e2070726f677265737360681b60448201526064016102fb565b60058101805460ff191660031790554260079091015550565b600081815260046020526040902060018101546001600160a01b0316331480610e2e575060028101546001600160a01b031633145b610e6b5760405162461bcd60e51b815260206004820152600e60248201526d139bdd08185d5d1a1bdc9a5e995960921b60448201526064016102fb565b6002600582015460ff166006811115610e8657610e866111d4565b1480610eaa57506003600582015460ff166006811115610ea857610ea86111d4565b145b610ee75760405162461bcd60e51b815260206004820152600e60248201526d496e76616c69642073746174757360901b60448201526064016102fb565b6005810154610100900460ff1615610f3a5760405162461bcd60e51b8152602060048201526016602482015275111a5cdc1d5d1948185b1c9958591e481c985a5cd95960521b60448201526064016102fb565b600501805461ffff191661010417905550565b600082815260046020526040902060018101546001600160a01b03163314610fb05760405162461bcd60e51b815260206004820152601660248201527527b7363c9031b634b2b73a1031b0b71030b9b9b4b3b760511b60448201526064016102fb565b6001600582015460ff166006811115610fcb57610fcb6111d4565b146110095760405162461bcd60e51b815260206004820152600e60248201526d129bd8881b9bdd08199d5b99195960921b60448201526064016102fb565b6001600160a01b0382166110545760405162461bcd60e51b815260206004820152601260248201527124b73b30b634b210333932b2b630b731b2b960711b60448201526064016102fb565b600281810180546001600160a01b0319166001600160a01b03851690811790915560058301805460ff191690921790915560405184907f3738a681a43a0b6a554742a08bae57e0215e8a774217dc2e7de6c9411b6d0ddc90600090a3505050565b6110bd61111a565b6001600160a01b0381166110e757604051631e4fbdf760e01b8152600060048201526024016102fb565b610d1581611147565b60026000540361111357604051633ee5aeb560e01b815260040160405180910390fd5b6002600055565b6001546001600160a01b031633146109995760405163118cdaa760e01b81523360048201526024016102fb565b600180546001600160a01b038381166001600160a01b0319831681179093556040519116919082907f8be0079c531659141344cd1fd0a4f28419497f9722a3daafe3b4186f6b6457e090600090a35050565b600080604083850312156111ac57600080fd5b50508035926020909101359150565b6000602082840312156111cd57600080fd5b5035919050565b634e487b7160e01b600052602160045260246000fd5b8981526001600160a01b03898116602083015288166040820152606081018790526080810186905261012081016007861061123557634e487b7160e01b600052602160045260246000fd5b60a082019590955292151560c084015260e08301919091526101009091015295945050505050565b60008060006060848603121561127257600080fd5b505081359360208301359350604090920135919050565b80356001600160a01b03811681146112a057600080fd5b919050565b6000602082840312156112b757600080fd5b6112c082611289565b9392505050565b600080604083850312156112da57600080fd5b823591506112ea60208401611289565b90509250929050565b60006020828403121561130557600080fd5b815180151581146112c057600080fd5b634e487b7160e01b600052601160045260246000fd5b8082018082111561133e5761133e611315565b92915050565b808202811582820484141761133e5761133e611315565b60008261137857634e487b7160e01b600052601260045260246000fd5b500490565b8181038181111561133e5761133e61131556fea26469706673582212203ba973810cdadb57a9ee756abe6bb772816a5c5b83bcdf1621d5e3b0df04791864736f6c63430008140033",
  "linkReferences": {},
  "deployedLinkReferences": {}
}